:060000000A128A11D02F44
:100008000134003401340034013400340134003444
:1000180001340034013400340934003483160313E6
:1000280087010713871300300A128A1543220A1220
:100038008A119C30F500D730F400F40B2128F50B19
:1000480021280330F5009730F400F40B2928F50B2C
:1000580029282E2803300A128A1508220A128A1122
:100068001A30F500F830F400F40B3828F50B38286E
:10007800000003300A128A1508220A128A11C730B2
:10008800F400F40B4528482803300A128A15082280
:100098000A128A1102300A128A1508220A128A11D3
:1000A80002300A128A1508220A128A1108300A1226
:1000B8008A1508220A128A1100300A128A150822A3
:1000C8000A128A110C300A128A1508220A128A1199
:1000D80000300A128A1508220A128A1106300A12FA
:1000E8008A1508220A128A110800831603130514B8
:1000F8008514051585150516831203139F0106300F
:10010800831603139F000A128A1112200A128A11F9
:100118000A128A15C3210A128A11F401F40A01305D
:100128000A128A1575230A128A118830F60080305F
:10013800F7000A128A15EF220A128A118312031392
:10014800051EA728A828E6280A30F7000030F8007E
:100158006908013EF9006A080318013E003EFA00EA
:100168000A128A15B5220A128A1178088312031313
:10017800EA007708E9000A128A158A220A128A1107
:100188000530F0008312031369080A128A15F32157
:100198000A128A11173EF6008030F7000A128A15F3
:1001A800EF220A128A11073083120313C000173096
:1001B800BF006930BE00BE0BDF28BF0BDF28C00BB5
:1001C800DF28E62883120313851DEB28EC282A294B
:1001D8000A30F7000030F8006908093EF9006A089B
:1001E8000318013E003EFA000A128A15B5220A12C7
:1001F8008A11780883120313EA007708E9000A12C3
:100208008A158A220A128A110530F0008312031314
:1002180069080A128A15F3210A128A11173EF60094
:100228008030F7000A128A15EF220A128A11073065
:1002380083120313C0001730BF006930BE00BE0B25
:100248002329BF0B2329C00B23292A29831203132F
:10025800851C2F29302962290A128A158A220A1236
:100268008A110530F0008312031369080A128A15EF
:10027800F3210A128A11173EF6008030F7000A129D
:100288008A15EF220A128A11831203136A08BD0025
:100298006908BC000A128A155A240A128A11073002
:1002A80083120313C0001730BF006930BE00BE0BB5
:1002B8005B29BF0B5B29C00B5B29622983120313DF
:1002C800051C6729682992290A128A15C3210A126E
:1002D8008A11F401F40A01300A128A1575230A12E8
:1002E8008A117330F6008030F7000A128A15EF225F
:1002F8000A128A110A128A15F6260A128A1107307A
:1003080083120313C0001730BF006930BE00BE0B54
:100318008B29BF0B8B29C00B8B299229A2280A1283
:100328008A11002883120313D501D60183160313FB
:100338008610861186120812081306100616061A69
:10034800A629AA29831603130615AD2983160313B4
:1003580006110619B029B429831603130617B729FD
:10036800831603130613061BBA29BE298316031323
:100378008815C1298316031388118819C429C82927
:10038800831603138816CB29831603138812881A39
:10039800CE29D229831603138817D5298316031368
:1003A80088136830F700E430F600F60BD929F70B0C
:1003B800D929000083120313D901DA0100305A0247
:1003C800023003195902031CEA29EB29EC29322BC4
:1003D8005918EF29F329831203138614F629831277
:1003E800031386108618F929FD298312031386152D
:1003F800002A8312031386118619032A072A8312F7
:10040800031386160A2A831203138612861A0D2AE4
:10041800112A831203130816142A831203130812CD
:10042800081A172A1B2A8312031308171E2A831275
:1004380003130813081B212A252A83120313061401
:10044800282A8312031306100230F8000430F7003C
:10045800BA30F600F60B2E2AF70B2E2AF80B2E2AA6
:100468000000031083120313881B031400300318C1
:100478000130F600F7017608D5007708D6000A3073
:10048800F0000030F1005E08F3005D08F2000A1287
:100498008A1565220A128A11710883120313DE0075
:1004A8007008DD005508DD070318DE0A5608DE0768
:1004B8000310881A0314003003180130F600F701FE
:1004C8007608D5007708D6000A30F0000030F10031
:1004D8006008F3005F08F2000A128A1565220A1202
:1004E8008A11710883120313E0007008DF005508B1
:1004F800DF070318E00A5608E007031088190314F9
:10050800003003180130F600F7017608D5007708A7
:10051800D6000A30F0000030F1006208F3006108EC
:10052800F2000A128A1565220A128A1171088312CA
:100538000313E2007008E1005508E1070318E20A16
:100548005608E2070310061B031400300318013095
:10055800F600F7017608D5007708D6000A30F000D3
:100568000030F1006408F3006308F2000A128A15EB
:1005780065220A128A11710883120313E4007008B5
:10058800E3005508E3070318E40A5608E4070310D4
:10059800061A0314003003180130F600F701760834
:1005A800D5007708D6000A30F0000030F100660860
:1005B800F3006508F2000A128A1565220A128A11E8
:1005C800710883120313E6007008E5005508E50773
:1005D8000318E60A5608E607031006190314003044
:1005E80003180130F600F7017608D5007708D60021
:1005F8000A30F0000030F1006808F3006708F200E4
:100608000A128A1565220A128A11710883120313C5
:10061800E8007008E7005508E7070318E80A5608D5
:10062800E8070330F8000830F7007730F600F60BDB
:100638001B2BF70B1B2BF80B1B2B013083120313FF
:10064800D9070318DA0A0030DA0700305A020230F4
:1006580003195902031C312B322BEC290800831291
:100668000313D101D201F401F40A02300A128A15E7
:1006780075230A128A11EB308312031320060F30F8
:1006880003192106031D492B4A2B6B2B83160313D1
:10069800861006118611061308128812081388138B
:1006A800061088158819592B5D2B83160313861697
:1006B800602B831603138612861A632B672B831607
:1006C800031306166A2B8316031306128B2B831645
:1006D8000313861086110612861208128812081350
:1006E80088130610061506197A2B7E2B831603131A
:1006F8000617812B831603130613061B842B882BDE
:100708008316031388158B2B831603138811023065
:1007180083120313A4000430A300B930A200A20B73
:10072800932BA30B932BA40B932B9A2B83120313BA
:10073800D901DA0100305A02023003195902031CA8
:10074800A62BA72BA82BFA2CD701D80100305802CA
:10075800023003195702031CB22BB32BB42BEB2C1A
:10076800D501D60100305602023003195502031C88
:10077800BE2BBF2BC02BDC2CEB3020060F3003190F
:100788002106031DC82BC92B462C5918CC2BD02B5E
:10079800831203130817D32B831203130813081BA0
:1007A800D62BDA2B831203130614DD2B83120313C3
:1007B80006100618E02BE42B831203138614E72B8C
:1007C8008312031386105718EA2BEE2B8312031398
:1007D8008816F12B831203138812881AF42BF82B2E
:1007E800831203138817FB2B831203138813881BA8
:1007F800FE2B022C831203130615052C83120313F8
:1008080006115518082C0C2C8312031308160F2CEC
:10081800831203130812081A122C162C83120313BE
:100828000617192C831203130613061B1C2C202CE5
:10083800831203138615232C831203138611343075
:1008480083120313A300F130A200A20B292CA30BDF
:10085800292C831203135108493E84000030061ADC
:100868000130831380005108413E84000030861A0D
:10087800013080005108B03E8400003088190130F2
:100888008000C32C5918492C4D2C8312031386154C
:10089800502C8312031386118619532C572C83125C
:1008A800031308175A2C831203130813081B5D2C13
:1008B800612C831203130614642C8312031306108D
:1008C8005718672C6B2C8312031306166E2C831291
:1008D80003130612061A712C752C8312031388163B
:1008E800782C831203138812881A7B2C7F2C83128E
:1008F80003138817822C8312031388135518852C29
:10090800892C8312031386168C2C831203138612E8
:10091800861A8F2C932C831203130816962C831295
:1009280003130812081A992C9D2C8312031386149A
:10093800A02C831203138610683083120313A300BC
:10094800E330A200A20BA62CA30BA62CAB2C83127F
:1009580003135108493E840000308819013083137D
:1009680080005108413E84000030061B01308000A1
:100978005108B03E84000030061901308000013073
:10098800D1070318D20A0030D20734308312031378
:10099800A300F130A200A20BCF2CA30BCF2C013067
:1009A80083120313D5070318D60A0030D607B62BCF
:1009B8000130D7070318D80A0030D807003058028A
:1009C800023003195702031CEA2CEB2CB42B01301C
:1009D800D9070318DA0A0030DA0700305A02023061
:1009E80003195902031CF92CFA2CA82B2108F10031
:1009F8002008F0000A128A151A260A128A11003AEB
:100A08000319072D082D122D6830F6008030F700E5
:100A18000A128A15EF220A128A111B2D7E30F6005F
:100A28008030F7000A128A15EF220A128A1108008C
:100A380083120313D501D60169036A04031D252D0A
:100A4800262D7B2E83160313861106110613861294
:100A5800881108120813881386148618342D382D27
:100A68008316031306163B2D831603130612061A64
:100A78003E2D422D831603138816452D8316031326
:100A88008812881A482D4C2D8316031306144F2DEF
:100A98008316031306106830F700E430F600F60BEF
:100AA800532DF70B532D000083120313D901DA01DC
:100AB80000305A02023003195902031C642D652DB7
:100AC800662DCF2FD701D801003058020230031904
:100AD8005702031C702D712D722D6B2E5918752D10
:100AE800792D8312031306157C2D83120313061127
:100AF80006197F2D832D831203138616862D8312E4
:100B080003138612861A892D8D2D83120313081656
:100B1800902D831203130812081A932D972D831210
:100B2800031388179A2D83120313881357189D2DC2
:100B3800A12D831203138615A42D83120313861186
:100B48008619A72DAB2D831203130617AE2D83121A
:100B580003130613061BB12DB52D83120313881535
:100B6800B82D8312031388118819BB2DBF2D83124A
:100B780003130817C22D8312031308130310061852
:100B88000314003003180130F600F7017608D50089
:100B98007708D6000A30F0000030F1005E08F30054
:100BA8005D08F2000A128A1565220A128A11710874
:100BB80083120313DE007008DD005508DD070318F3
:100BC800DE0A5608DE070310881A031400300318DB
:100BD8000130F600F7017608D5007708D6000A300C
:100BE800F0000030F1006008F3005F08F2000A121C
:100BF8008A1565220A128A11710883120313E0000C
:100C08007008DF005508DF070318E00A5608E007F8
:100C18000310061A0314003003180130F600F70118
:100C28007608D5007708D6000A30F0000030F100C9
:100C38006208F3006108F2000A128A1565220A1296
:100C48008A11710883120313E2007008E100550845
:100C5800E1070318E20A5608E2070310861803148E
:100C6800003003180130F600F7017608D500770840
:100C7800D6000A30F0000030F1006408F300630881
:100C8800F2000A128A1565220A128A117108831263
:100C98000313E4007008E3005508E3070318E40AA7
:100CA8005608E4070330F8000830F7007730F600FC
:100CB800F60B5C2EF70B5C2EF80B5C2E01308312C2
:100CC8000313D7070318D80A0030D807682D013056
:100CD800D9070318DA0A0030DA0700305A0202305E
:100CE80003195902031C792E7A2E662DCF2F8316ED
:100CF800031386100611061286120812881288132A
:100D0800061086158619892E8D2E8316031306174D
:100D1800902E831603130613061B932E972E831605
:100D2800031388159A2E83160313881188199D2E8C
:100D3800A12E831603130817A42E83160313081372
:100D48006830F700E430F600F60BA82EF70BA82E53
:100D5800000083120313D901DA0100305A0202306D
:100D680003195902031CB92EBA2EBB2ECF2FD70157
:100D7800D80100305802023003195702031CC52E4F
:100D8800C62EC72EC02F5918CA2ECE2E8312031373
:100D98000615D12E8312031306110619D42ED82E48
:100DA800831203138616DB2E831203138612861A08
:100DB800DE2EE22E831203138816E52E8312031308
:100DC8008812881AE82EEC2E831203130614EF2ECD
:100DD8008312031306105718F22EF62E83120313EC
:100DE8008614F92E8312031386108618FC2E002F02
:100DF800831203130616032F831203130612061A0F
:100E0800062F0A2F8312031308160D2F83120313BC
:100E18000812081A102F142F831203138817172F7C
:100E28008312031388130310081B031400300318DC
:100E38000130F600F7017608D5007708D6000A30A9
:100E4800F0000030F1005E08F3005D08F2000A12BD
:100E58008A1565220A128A11710883120313DE00AB
:100E68007008DD005508DD070318DE0A5608DE079E
:100E7800031088190314003003180130F600F70135
:100E88007608D5007708D6000A30F0000030F10067
:100E98006008F3005F08F2000A128A1565220A1238
:100EA8008A11710883120313E0007008DF005508E7
:100EB800DF070318E00A5608E0070310061B0314AF
:100EC800003003180130F600F7017608D5007708DE
:100ED800D6000A30F0000030F1006208F300610823
:100EE800F2000A128A1565220A128A117108831201
:100EF8000313E2007008E1005508E1070318E20A4D
:100F08005608E2070310861903140030031801304D
:100F1800F600F7017608D5007708D6000A30F00009
:100F28000030F1006408F3006308F2000A128A1521
:100F380065220A128A11710883120313E4007008EB
:100F4800E3005508E3070318E40A5608E4070330EA
:100F5800F8000830F7007730F600F60BB12FF70BE2
:100F6800B12FF80BB12F013083120313D7070318E1
:100F7800D80A0030D807BD2E0130D9070318DA0A7D
:100F88000030DA0700305A02023003195902031CF4
:100F9800CE2FCF2FBB2E08008313B030FD000930B1
:100FA800FE00D030FF00A03084000A128A15E42128
:100FB8000A128A116B30FD000030FE000430FF0079
:100FC8005D3084000A128A15E4210A128A11B030B1
:100FD8008400B8300A128A15BB210A128A114130DE
:100FE80084005D300A128A15BB210A128A11FD019C
:100FF80083010A128A117928FF1B0A2883137F1894
:1010080083170008840A0319FF0A080008308A00B9
:101018000408840A820700346E340034F8342A3411
:1010280066342B34113427347F3427347E34273404
:10103800013400340A34003464340034E8340334AE
:1010480010342734373434343034343400343734BB
:101058003434303432340034373434343034303487
:10106800003437343434303438340034373434349A
:10107800333432340034373434343834363400348A
:1010880031343034003400340034313431340034F5
:10109800003400343234373400340034003434340B
:1010A80030343734353400340034003400340034FC
:1010B80000344E346F34743420344434743463341C
:1010C80020346F3472342034423461346434003450
:1010D80020344734413454344534203447344F3471
:1010E8004F3444340034493443342034493453347D
:1010F800203447344F344F34443400344934433473
:1011080020344134753474346F342E342E342E34F4
:10111800003449344334203449345334203442347D
:10112800413444340034493443342034543445344D
:10113800533454344534523400344934433420341D
:1011480020340034373434340034253464340034E3
:1013760064008001840A0406031900340406BC29AB
:1013860000300A128A1508220A128A1501300A123A
:101396008A1508220A128A1508000034013401341D
:1013A6000134013401340134013400340034003492
:1013B600003400340034003401347E088A007F088B
:1013C60082000A128A15E0210A128A158000840A10
:1013D60004087D0603190034FF0A0319FE0AE429EE
:1013E600F200F101721CF829F929FD297008FF00A5
:1013F6007F08F1070310F00D0310F20C7208031DAD
:10140600052A062AF52971080800F300831203133A
:10141600071373080A128A1543220A128A158312C1
:10142600031387170330F2009730F100F10B192AE6
:10143600F20B192A1E2A831203138713080083123C
:101446000313D901DA0100305A0206300319590292
:10145600031C2E2A2F2A302A422A5908F000700728
:101466005D3E8400013083138000840A00308000D2
:101476000130D9070318DA0A0030DA07262A0800ED
:10148600F000701C472A482A4C2A831203130715BA
:101496004F2A831203130711F01C522A532A552A86
:1014A6008715562A8711701D592A5A2A5C2A07164B
:1014B6005D2A0712F01D602A612A632A8716642AAC
:1014C60087120800F401F501701C6A2A6B2A712A3A
:1014D6007208F4070318F50A7308F50701300310BC
:1014E600F20DF30DFF3E031D722A01300310F10CBD
:1014F600F00CFF3E031D792A70087104031D842A2F
:10150600852A672A7508F1007408F00008000A1297
:101516008A15C3210A128A15F401F40A01300A1247
:101526008A1575230A128A159230F6008030F70064
:101536000A128A15EF220A128A1500308312031343
:101546006A02063003196902031CAA2AAB2AB42AC6
:101556009730F6008030F7000A128A15EF220A1239
:101566008A150800770878040319BA2ABB2AEA2ADA
:10157600FB01FB0AC92A01300310F70DF80DFF3EE7
:10158600031DBF2A0130FF007F08FB07F81FCC2A86
:10159600CD2ABE2A78087A02031DD32A7708790253
:1015A600031CD62AD72ADD2A7708F9027808031CF5
:1015B600FA03FA0201300310F80CF70CFF3E031D84
:1015C600DE2A0130FB02031DE92AEA2ACD2A7A081F
:1015D600F8007908F7000800FB01FC01142B7B08D2
:1015E6007607F9007708F8000318F80AFB1FFC2AAB
:1015F600F8037808FA007A0883120313FF007908C3
:1016060084000A128A1500200A128A150A128A15FF
:10161600BA230A128A150130FB070318FC0A0030A8
:10162600FC077B087607F9007708F8000318F80A24
:10163600FB1F1E2BF8037808FA007A08831203139F
:10164600FF00790884000A128A1500200A128A15FA
:10165600003A031D2F2B302BF22A0800F401F50166
:10166600700871040319382B392B702BF601F60A12
:10167600472B01300310F00DF10DFF3E031D3D2BEE
:101686000130FF007F08F607F11F4A2B4B2B3C2B3E
:1016960001300310F40DF50DFF3E031D4C2B7108B0
:1016A6007302031D582B70087202031C5B2B5C2B04
:1016B600632B7008F2027108031CF303F30274141F
:1016C60001300310F10CF00CFF3E031D642B0130BA
:1016D600F602031D6F2B702B4B2B7508F100740857
:1016E600F0000800F6007603031D7A2B7B2B972B60
:1016F60074087F3EF9007908F50004300310F50CF4
:10170600FF3E031D812B7508F80079080F39F70095
:1017160078080A128A1508220A128A1577080A1208
:101726008A1508220A128A1502307606031D9C2B9A
:101736009D2BB92B7408BF3EF9007908F5000430DB
:101746000310F50CFF3E031DA32B7508F80079085E
:101756000F39F70078080A128A1508220A128A1524
:1017660077080A128A1508220A128A150800F50057
:1017760075080F39F3007508F039F4008312031366
:1017860007177408F10004300310F10CFF3E031D27
:10179600C72B71080A128A1543220A128A15831268
:1017A600031387170330F2009730F100F10BD92BA2
:1017B600F20BD92BDE2B8312031387130330F200AF
:1017C6009730F100F10BE52BF20BE52BEA2B7308B2
:1017D6000A128A1543220A128A15831203138717DF
:1017E6000330F2009730F100F10BF72BF20BF72BD9
:1017F600FC2B8312031387130330F2009730F1009A
:10180600F10B032CF20B032C082C08008312031394
:10181600D701D801D901DA01422C5908F40074071E
:101826005D3E840083130008F500840A0008F60074
:101836007008F7007707013E84000A128A150A200D
:101846000A128A15F8000A128A150A200A128A153F
:10185600F90076087906031D322C75087806031DF3
:10186600352C362C3C2C0130D7070318D80A00300B
:10187600D8070130D9070318DA0A0030DA077308E7
:101886005A02031D482C72085902031C4B2C4C2C7F
:10189600102C73085806031D522C72085706031D98
:1018A600552C562C582C0130592C00300800831228
:1018B60003133C083D04031D612C622C7B2C0A1289
:1018C6008A1196210A128A15003083120313AD007D
:1018D600AE000630AF000030B0000A128A15B224FE
:1018E6000A128A150A128A1522220A128A15B12CA0
:1018F6003C083D040319802C812C9F2C00303D02AE
:10190600063003193C020318892C8A2C9F2C0A12D4
:101916008A111C250A128A15831203133D08AE008C
:101926003C08AD000430AF000030B0000A128A1542
:10193600B2240A128A15752C00303D0206300319AE
:101946003C02031CA72CA82CB12C3D08A1003C0886
:10195600A0000A128A1133230A128A150800F4011C
:10196600F40A02300A128A1575230A128A1583129E
:101976000313D701D801D901DA01122D5908B10094
:1019860031075D3E840083130008B200840A000814
:10199600B3002D08B4003407013E84000A128A15EC
:1019A6000A200A128A15B5000A128A150A200A1296
:1019B6008A15B60033083606031DE32C32083506B1
:1019C600031DE62CE72C0C2D5908013EBA005A08D7
:1019D6000318013E003EBB009A30A0003B08A2005F
:1019E6003A08A10037300A128A1540250A128A15CC
:1019F6003730F6000030F7000A128A15EF220A1275
:101A06008A15013083120313D7070318D80A00304A
:101A1600D8070130D9070318DA0A0030DA07300888
:101A26005A02031D182D2F085902031C1B2D1C2DAD
:101A3600C12C00305802023003195702031C242D12
:101A4600252D2E2D5D30F6008030F7000A128A15FE
:101A5600EF220A128A158312031357085804031D2E
:101A6600352D362D3F2D7E30F6008030F7000A12D8
:101A76008A15EF220A128A15080083120313AB0097
:101A86002130A600052E25302C0603194B2D4C2D92
:101A9600562D2B0884002C08831380000130FF008C
:101AA6007F08AB07052EA7010130A007FF302007EE
:101AB60084000A128A150A200A128A15AC00A300AD
:101AC600A4012408003A0319692D052E2308003ABB
:101AD6000319152E643A0319742D0D3A0319742D42
:101AE600052E2608840083130008A900840A00082E
:101AF600AA000230FF007F08A607AA1F832D842DA7
:101B06008D2D0330FF007F08A704A909AA09A90A99
:101B16000319AA0AAC01AC0A2C08A30023070D3E40
:101B260084000A128A150A200A128A15A4000A12CB
:101B36008A150A200A128A15A50025082A02031DFD
:101B4600A62D240829020318A92DAA2DAB2DB52DE3
:101B56000130FF007F08AC0705302C06031DB42DAD
:101B6600B52D8F2D270803390319BA2DBB2DC42D8A
:101B76002B0884002D30831380000130FF007F087E
:101B8600AB072C08A800FC2D0A30F7000030F8003F
:101B96002808A30023070D3E84000A128A150A208E
:101BA6000A128A15F0000A128A150A200A128A15E4
:101BB600F1002A08F3002908F2000A128A153123D7
:101BC6000A128A157108FA007008F9000A128A15B5
:101BD600B5220A128A157708303E83120313AC0029
:101BE6002B0884002C08831380000130FF007F0837
:101BF600AB07FF30FF007F08A807280A031D042E45
:101C0600052EC72D0130A007FF30200784000A12D9
:101C16008A150A200A128A15AC002C08031D142EF8
:101C2600152E462D2B08840083138001080083128D
:101C36000313D901DA0100305A0208300319590298
:101C4600031C262E272E282EF42E0630700671042D
:101C5600031D2E2E2F2E582E5908A83E84008313BE
:101C66000008F2005908B03E84000008F300590845
:101C7600413E84000008F4005908493E84000008EB
:101C860074060319472E492E01304A2E003073067A
:101C960003194E2E502E0130512E00307206031DB0
:101CA600552E562EE52E0030F52E0730700671049F
:101CB600031D5E2E5F2E872E5908A83E84008313CF
:101CC6000008F2005908B03E84000008F3005908E5
:101CD600413E84000008F4005908493E840000088B
:101CE6007406031D772E792E01307A2E0030730686
:101CF600031D7E2E802E0130812E003072060319C0
:101D0600852E862EE52E562E083070067104031D8C
:101D16008D2E8E2EB62E5908A03E84008313000801
:101D2600F2005908B03E84000008F3005908413E0D
:101D360084000008F4005908493E8400000874062F
:101D46000319A62EA82E0130A92E003073060319FA
:101D5600AD2EAF2E0130B02E00307206031DB42E0C
:101D6600B52EE52E562E093070067104031DBC2EC5
:101D7600BD2E562E5908A03E840083130008F2009B
:101D86005908B03E84000008F3005908413E84001B
:101D96000008F4005908493E840000087406031D33
:101DA600D52ED72E0130D82E00307306031DDC2E1B
:101DB600DE2E0130DF2E003072060319E32EE42EEC
:101DC600E52E562E0130D9070318DA0A0030DA0755
:101DD60000305A02083003195902031CF32EF42E60
:101DE600282E013008000A128A1522220A128A15A4
:101DF6000A128A1196210A128A150030F000F100A3
:101E06000630F2000030F3000A128A1509240A127D
:101E16008A15003A0319102F112F372F8312031337
:101E2600E901EA010A128A158A220A128A1517306E
:101E3600F6008030F7000A128A15EF220A128A1578
:101E4600003083120313AD00AE000630AF00003041
:101E5600B0000A128A15B2240A128A150A128A15C5
:101E660022220A128A15FF2F2E300A128A15BA2349
:101E76000A128A150A128A1522220A128A150130B6
:101E860083120313E9000030EA000A128A111C25A6
:101E96000A128A150130F0000030F1000430F20019
:101EA6000030F3000A128A1509240A128A15003A2C
:101EB60003195E2F5F2F7D2F0A128A158A220A12B6
:101EC6008A151C30F6008030F7000A128A15EF22B8
:101ED6000A128A15013083120313AD000030AE00DA
:101EE6000430AF000030B0000A128A15B2240A127C
:101EF6008A15312F2E300A128A15BA230A128A152C
:101F06000A128A1522220A128A1502308312031334
:101F1600E9000030EA000A128A111C250A128A1505
:101F2600023083120313BC000030BD00831203137A
:101F36003D08F1003C08F0000430F2000030F300E8
:101F46000A128A1509240A128A15003A0319AC2FB7
:101F5600AD2FD52F0A128A158A220A128A15053044
:101F6600F000831203133C080A128A15F3210A12A1
:101F76008A15173EF6008030F7000A128A15EF22FE
:101F86000A128A15831203133D08AE003C08AD0001
:101F96000430AF000030B0000A128A15B2240A12CB
:101FA6008A15FF2F013083120313BC070318BD0ADD
:101FB6000030BD073D08803AFF0080307F02031DD8
:101FC600E62F06303C02031CE92FEA2F992FF40175
:101FD600F40A02300A128A1575230A128A154E303F
:101FE600F6008030F7000A128A15EF220A128A15C7
:0A1FF60083120313E901EA01080059
:02400E00323F3F
:00000001FF
